{"abi":[{"type":"constructor","inputs":[],"stateMutability":"nonpayable"},{"type":"function","name":"approve","inputs":[{"name":"to","type":"address","internalType":"address"},{"name":"tokenId","type":"uint256","internalType":"uint256"}],"outputs":[],"stateMutability":"nonpayable"},{"type":"function","name":"balanceOf","inputs":[{"name":"owner","type":"address","internalType":"address"}],"outputs":[{"name":"","type":"uint256","internalType":"uint256"}],"stateMutability":"view"},{"type":"function","name":"certificates","inputs":[{"name":"","type":"uint256","internalType":"uint256"}],"outputs":[{"name":"subject","type":"string","internalType":"string"},{"name":"studentName","type":"string","internalType":"string"},{"name":"score","type":"uint256","internalType":"uint256"},{"name":"timestamp","type":"uint256","internalType":"uint256"},{"name":"verified","type":"bool","internalType":"bool"}],"stateMutability":"view"},{"type":"function","name":"getApproved","inputs":[{"name":"tokenId","type":"uint256","internalType":"uint256"}],"outputs":[{"name":"","type":"address","internalType":"address"}],"stateMutability":"view"},{"type":"function","name":"getCertificate","inputs":[{"name":"tokenId","type":"uint256","internalType":"uint256"}],"outputs":[{"name":"","type":"tuple","internalType":"struct CertificateNFT.Certificate","components":[{"name":"subject","type":"string","internalType":"string"},{"name":"studentName","type":"string","internalType":"string"},{"name":"score","type":"uint256","internalType":"uint256"},{"name":"timestamp","type":"uint256","internalType":"uint256"},{"name":"verified","type":"bool","internalType":"bool"}]}],"stateMutability":"view"},{"type":"function","name":"getUserCertificates","inputs":[{"name":"user","type":"address","internalType":"address"}],"outputs":[{"name":"","type":"uint256[]","internalType":"uint256[]"}],"stateMutability":"view"},{"type":"function","name":"isApprovedForAll","inputs":[{"name":"owner","type":"address","internalType":"address"},{"name":"operator","type":"address","internalType":"address"}],"outputs":[{"name":"","type":"bool","internalType":"bool"}],"stateMutability":"view"},{"type":"function","name":"mintCertificate","inputs":[{"name":"to","type":"address","internalType":"address"},{"name":"_tokenURI","type":"string","internalType":"string"}],"outputs":[{"name":"","type":"uint256","internalType":"uint256"}],"stateMutability":"nonpayable"},{"type":"function","name":"mintCertificateWithDetails","inputs":[{"name":"to","type":"address","internalType":"address"},{"name":"_tokenURI","type":"string","internalType":"string"},{"name":"subject","type":"string","internalType":"string"},{"name":"studentName","type":"string","internalType":"string"},{"name":"score","type":"uint256","internalType":"uint256"}],"outputs":[{"name":"","type":"uint256","internalType":"uint256"}],"stateMutability":"nonpayable"},{"type":"function","name":"name","inputs":[],"outputs":[{"name":"","type":"string","internalType":"string"}],"stateMutability":"view"},{"type":"function","name":"owner","inputs":[],"outputs":[{"name":"","type":"address","internalType":"address"}],"stateMutability":"view"},{"type":"function","name":"ownerOf","inputs":[{"name":"tokenId","type":"uint256","internalType":"uint256"}],"outputs":[{"name":"","type":"address","internalType":"address"}],"stateMutability":"view"},{"type":"function","name":"renounceOwnership","inputs":[],"outputs":[],"stateMutability":"nonpayable"},{"type":"function","name":"safeTransferFrom","inputs":[{"name":"from","type":"address","internalType":"address"},{"name":"to","type":"address","internalType":"address"},{"name":"tokenId","type":"uint256","internalType":"uint256"}],"outputs":[],"stateMutability":"nonpayable"},{"type":"function","name":"safeTransferFrom","inputs":[{"name":"from","type":"address","internalType":"address"},{"name":"to","type":"address","internalType":"address"},{"name":"tokenId","type":"uint256","internalType":"uint256"},{"name":"data","type":"bytes","internalType":"bytes"}],"outputs":[],"stateMutability":"nonpayable"},{"type":"function","name":"setApprovalForAll","inputs":[{"name":"operator","type":"address","internalType":"address"},{"name":"approved","type":"bool","internalType":"bool"}],"outputs":[],"stateMutability":"nonpayable"},{"type":"function","name":"supportsInterface","inputs":[{"name":"interfaceId","type":"bytes4","internalType":"bytes4"}],"outputs":[{"name":"","type":"bool","internalType":"bool"}],"stateMutability":"view"},{"type":"function","name":"symbol","inputs":[],"outputs":[{"name":"","type":"string","internalType":"string"}],"stateMutability":"view"},{"type":"function","name":"tokenURI","inputs":[{"name":"tokenId","type":"uint256","internalType":"uint256"}],"outputs":[{"name":"","type":"string","internalType":"string"}],"stateMutability":"view"},{"type":"function","name":"totalSupply","inputs":[],"outputs":[{"name":"","type":"uint256","internalType":"uint256"}],"stateMutability":"view"},{"type":"function","name":"transferFrom","inputs":[{"name":"from","type":"address","internalType":"address"},{"name":"to","type":"address","internalType":"address"},{"name":"tokenId","type":"uint256","internalType":"uint256"}],"outputs":[],"stateMutability":"nonpayable"},{"type":"function","name":"transferOwnership","inputs":[{"name":"newOwner","type":"address","internalType":"address"}],"outputs":[],"stateMutability":"nonpayable"},{"type":"function","name":"userCertificates","inputs":[{"name":"","type":"address","internalType":"address"},{"name":"","type":"uint256","internalType":"uint256"}],"outputs":[{"name":"","type":"uint256","internalType":"uint256"}],"stateMutability":"view"},{"type":"function","name":"verifyCertificate","inputs":[{"name":"tokenId","type":"uint256","internalType":"uint256"}],"outputs":[{"name":"","type":"bool","internalType":"bool"}],"stateMutability":"view"},{"type":"event","name":"Approval","inputs":[{"name":"owner","type":"address","indexed":true,"internalType":"address"},{"name":"approved","type":"address","indexed":true,"internalType":"address"},{"name":"tokenId","type":"uint256","indexed":true,"internalType":"uint256"}],"anonymous":false},{"type":"event","name":"ApprovalForAll","inputs":[{"name":"owner","type":"address","indexed":true,"internalType":"address"},{"name":"operator","type":"address","indexed":true,"internalType":"address"},{"name":"approved","type":"bool","indexed":false,"internalType":"bool"}],"anonymous":false},{"type":"event","name":"BatchMetadataUpdate","inputs":[{"name":"_fromTokenId","type":"uint256","indexed":false,"internalType":"uint256"},{"name":"_toTokenId","type":"uint256","indexed":false,"internalType":"uint256"}],"anonymous":false},{"type":"event","name":"CertificateMinted","inputs":[{"name":"tokenId","type":"uint256","indexed":true,"internalType":"uint256"},{"name":"student","type":"address","indexed":true,"internalType":"address"},{"name":"subject","type":"string","indexed":false,"internalType":"string"},{"name":"score","type":"uint256","indexed":false,"internalType":"uint256"},{"name":"tokenURI","type":"string","indexed":false,"internalType":"string"}],"anonymous":false},{"type":"event","name":"MetadataUpdate","inputs":[{"name":"_tokenId","type":"uint256","indexed":false,"internalType":"uint256"}],"anonymous":false},{"type":"event","name":"OwnershipTransferred","inputs":[{"name":"previousOwner","type":"address","indexed":true,"internalType":"address"},{"name":"newOwner","type":"address","indexed":true,"internalType":"address"}],"anonymous":false},{"type":"event","name":"Transfer","inputs":[{"name":"from","type":"address","indexed":true,"internalType":"address"},{"name":"to","type":"address","indexed":true,"internalType":"address"},{"name":"tokenId","type":"uint256","indexed":true,"internalType":"uint256"}],"anonymous":false}],"bytecode":{"object":"0x608060405234801561000f575f5ffd5b506040518060400160405280601681526020017f4f70656e4c6561726e58204365727469666963617465000000000000000000008152506040518060400160405280600481526020017f4f4c584300000000000000000000000000000000000000000000000000000000815250815f908161008a91906103c5565b50806001908161009a91906103c5565b5050506100b96100ae6100be60201b60201c565b6100c560201b60201c565b610494565b5f33905090565b5f60075f9054906101000a900473ffffffffffffffffffffffffffffffffffffffff1690508160075f6101000a81548173ffffffffffffffffffffffffffffffffffffffff021916908373ffffffffffffffffffffffffffffffffffffffff1602179055508173ffffffffffffffffffffffffffffffffffffffff168173ffffffffffffffffffffffffffffffffffffffff167f8be0079c531659141344cd1fd0a4f28419497f9722a3daafe3b4186f6b6457e060405160405180910390a35050565b5f81519050919050565b7f4e487b71000000000000000000000000000000000000000000000000000000005f52604160045260245ffd5b7f4e487b71000000000000000000000000000000000000000000000000000000005f52602260045260245ffd5b5f600282049050600182168061020357607f821691505b602082108103610216576102156101bf565b5b50919050565b5f819050815f5260205f209050919050565b5f6020601f8301049050919050565b5f82821b905092915050565b5f600883026102787fffffffffffffffffffffffffffffffffffffffffffffffffffffffffffffffff8261023d565b610282868361023d565b95508019841693508086168417925050509392505050565b5f819050919050565b5f819050919050565b5f6102c66102c16102bc8461029a565b6102a3565b61029a565b9050919050565b5f819050919050565b6102df836102ac565b6102f36102eb826102cd565b848454610249565b825550505050565b5f5f905090565b61030a6102fb565b6103158184846102d6565b505050565b5b818110156103385761032d5f82610302565b60018101905061031b565b5050565b601f82111561037d5761034e8161021c565b6103578461022e565b81016020851015610366578190505b61037a6103728561022e565b83018261031a565b50505b505050565b5f82821c905092915050565b5f61039d5f1984600802610382565b1980831691505092915050565b5f6103b5838361038e565b9150826002028217905092915050565b6103ce82610188565b67ffffffffffffffff8111156103e7576103e6610192565b5b6103f182546101ec565b6103fc82828561033c565b5f60209050601f83116001811461042d575f841561041b578287015190505b61042585826103aa565b86555061048c565b601f19841661043b8661021c565b5f5b828110156104625784890151825560018201915060208501945060208101905061043d565b8683101561047f578489015161047b601f89168261038e565b8355505b6001600288020188555050505b505050505050565b613ae4806104a15f395ff3fe608060405234801561000f575f5ffd5b5060043610610156575f3560e01c80636352211e116100c157806395d89b411161007a57806395d89b4114610426578063a22cb46514610444578063b88d4fde14610460578063c87b56dd1461047c578063e985e9c5146104ac578063f2fde38b146104dc57610156565b80636352211e1461033a57806363a0d4d41461036a578063663b3e221461039a57806370a08231146103ce578063715018a6146103fe5780638da5cb5b1461040857610156565b8063095ea7b311610113578063095ea7b3146102685780631692a9421461028457806318160ddd146102b457806323b872dd146102d257806342842e0e146102ee57806351640fee1461030a57610156565b80630175f8891461015a57806301ffc9a71461018a5780630385bd18146101ba57806306fdde03146101ea5780630712249f14610208578063081812fc14610238575b5f5ffd5b610174600480360381019061016f9190612555565b6104f8565b60405161018191906125a2565b60405180910390f35b6101a4600480360381019061019f9190612610565b610523565b6040516101b19190612655565b60405180910390f35b6101d460048036038101906101cf919061266e565b610534565b6040516101e19190612750565b60405180910390f35b6101f26105c7565b6040516101ff91906127e0565b60405180910390f35b610222600480360381019061021d919061292c565b610656565b60405161022f91906125a2565b60405180910390f35b610252600480360381019061024d9190612986565b610826565b60405161025f91906129c0565b60405180910390f35b610282600480360381019061027d9190612555565b610868565b005b61029e60048036038101906102999190612986565b61097e565b6040516102ab9190612655565b60405180910390f35b6102bc6109ef565b6040516102c991906125a2565b60405180910390f35b6102ec60048036038101906102e791906129d9565b6109ff565b005b610308600480360381019061030391906129d9565b610a5f565b005b610324600480360381019061031f9190612986565b610a7e565b6040516103319190612afa565b60405180910390f35b610354600480360381019061034f9190612986565b610c3e565b60405161036191906129c0565b60405180910390f35b610384600480360381019061037f9190612b1a565b610cc2565b60405161039191906125a2565b60405180910390f35b6103b460048036038101906103af9190612986565b610e52565b6040516103c5959493929190612be5565b60405180910390f35b6103e860048036038101906103e3919061266e565b610f9c565b6040516103f591906125a2565b60405180910390f35b610406611050565b005b610410611063565b60405161041d91906129c0565b60405180910390f35b61042e61108b565b60405161043b91906127e0565b60405180910390f35b61045e60048036038101906104599190612c6e565b61111b565b005b61047a60048036038101906104759190612d4a565b611131565b005b61049660048036038101906104919190612986565b611193565b6040516104a391906127e0565b60405180910390f35b6104c660048036038101906104c19190612dca565b6111a5565b6040516104d39190612655565b60405180910390f35b6104f660048036038101906104f1919061266e565b611233565b005b600a602052815f5260405f208181548110610511575f80fd5b905f5260205f20015f91509150505481565b5f61052d826112b5565b9050919050565b6060600a5f8373ffffffffffffffffffffffffffffffffffffffff1673ffffffffffffffffffffffffffffffffffffffff1681526020019081526020015f208054806020026020016040519081016040528092919081815260200182805480156105bb57602002820191905f5260205f20905b8154815260200190600101908083116105a7575b50505050509050919050565b60605f80546105d590612e35565b80601f016020809104026020016040519081016040528092919081815260200182805461060190612e35565b801561064c5780601f106106235761010080835404028352916020019161064c565b820191905f5260205f20905b81548152906001019060200180831161062f57829003601f168201915b5050505050905090565b5f61065f611315565b6106696008611393565b5f61067460086113a7565b905061068084826113b3565b61068a81846115c6565b6040518060a001604052806040518060400160405280600781526020017f47656e6572616c00000000000000000000000000000000000000000000000000815250815260200160405180602001604052805f8152508152602001606481526020014281526020016001151581525060095f8381526020019081526020015f205f820151815f01908161071c9190613005565b5060208201518160010190816107329190613005565b5060408201518160020155606082015181600301556080820151816004015f6101000a81548160ff021916908315150217905550905050600a5f8573ffffffffffffffffffffffffffffffffffffffff1673ffffffffffffffffffffffffffffffffffffffff1681526020019081526020015f2081908060018154018082558091505060019003905f5260205f20015f90919091909150558373ffffffffffffffffffffffffffffffffffffffff16817fe334845abbd31a2d3f04296404c9d5f0fe513e81be43ac1c8babf499495deb14606486604051610814929190613157565b60405180910390a38091505092915050565b5f61083082611668565b60045f8381526020019081526020015f205f9054906101000a900473ffffffffffffffffffffffffffffffffffffffff169050919050565b5f61087282610c3e565b90508073ffffffffffffffffffffffffffffffffffffffff168373ffffffffffffffffffffffffffffffffffffffff16036108e2576040517f08c379a00000000000000000000000000000000000000000000000000000000081526004016108d990613208565b60405180910390fd5b8073ffffffffffffffffffffffffffffffffffffffff166109016116b3565b73ffffffffffffffffffffffffffffffffffffffff161480610930575061092f8161092a6116b3565b6111a5565b5b61096f576040517f08c379a000000000000000000000000000000000000000000000000000000000815260040161096690613296565b60405180910390fd5b61097983836116ba565b505050565b5f61098882611770565b6109c7576040517f08c379a00000000000000000000000000000000000000000000000000000000081526004016109be906132fe565b60405180910390fd5b60095f8381526020019081526020015f206004015f9054906101000a900460ff169050919050565b5f6109fa60086113a7565b905090565b610a10610a0a6116b3565b826117b0565b610a4f576040517f08c379a0000000000000000000000000000000000000000000000000000000008152600401610a469061338c565b60405180910390fd5b610a5a838383611844565b505050565b610a7983838360405180602001604052805f815250611131565b505050565b610a86612489565b610a8f82611770565b610ace576040517f08c379a0000000000000000000000000000000000000000000000000000000008152600401610ac5906132fe565b60405180910390fd5b60095f8381526020019081526020015f206040518060a00160405290815f82018054610af990612e35565b80601f0160208091040260200160405190810160405280929190818152602001828054610b2590612e35565b8015610b705780601f10610b4757610100808354040283529160200191610b70565b820191905f5260205f20905b815481529060010190602001808311610b5357829003601f168201915b50505050508152602001600182018054610b8990612e35565b80601f0160208091040260200160405190810160405280929190818152602001828054610bb590612e35565b8015610c005780601f10610bd757610100808354040283529160200191610c00565b820191905f5260205f20905b815481529060010190602001808311610be357829003601f168201915b505050505081526020016002820154815260200160038201548152602001600482015f9054906101000a900460ff1615151515815250509050919050565b5f5f610c4983611b30565b90505f73ffffffffffffffffffffffffffffffffffffffff168173ffffffffffffffffffffffffffffffffffffffff1603610cb9576040517f08c379a0000000000000000000000000000000000000000000000000000000008152600401610cb0906133f4565b60405180910390fd5b80915050919050565b5f610ccb611315565b610cd56008611393565b5f610ce060086113a7565b9050610cec87826113b3565b610cf681876115c6565b6040518060a001604052808681526020018581526020018481526020014281526020016001151581525060095f8381526020019081526020015f205f820151815f019081610d449190613005565b506020820151816001019081610d5a9190613005565b5060408201518160020155606082015181600301556080820151816004015f6101000a81548160ff021916908315150217905550905050600a5f8873ffffffffffffffffffffffffffffffffffffffff1673ffffffffffffffffffffffffffffffffffffffff1681526020019081526020015f2081908060018154018082558091505060019003905f5260205f20015f90919091909150558673ffffffffffffffffffffffffffffffffffffffff16817fe334845abbd31a2d3f04296404c9d5f0fe513e81be43ac1c8babf499495deb1487868a604051610e3d93929190613412565b60405180910390a38091505095945050505050565b6009602052805f5260405f205f91509050805f018054610e7190612e35565b80601f0160208091040260200160405190810160405280929190818152602001828054610e9d90612e35565b8015610ee85780601f10610ebf57610100808354040283529160200191610ee8565b820191905f5260205f20905b815481529060010190602001808311610ecb57829003601f168201915b505050505090806001018054610efd90612e35565b80601f0160208091040260200160405190810160405280929190818152602001828054610f2990612e35565b8015610f745780601f10610f4b57610100808354040283529160200191610f74565b820191905f5260205f20905b815481529060010190602001808311610f5757829003601f168201915b505050505090806002015490806003015490806004015f9054906101000a900460ff16905085565b5f5f73ffffffffffffffffffffffffffffffffffffffff168273ffffffffffffffffffffffffffffffffffffffff160361100b576040517f08c379a0000000000000000000000000000000000000000000000000000000008152600401611002906134c5565b60405180910390fd5b60035f8373ffffffffffffffffffffffffffffffffffffffff1673ffffffffffffffffffffffffffffffffffffffff1681526020019081526020015f20549050919050565b611058611315565b6110615f611b69565b565b5f60075f9054906101000a900473ffffffffffffffffffffffffffffffffffffffff16905090565b60606001805461109a90612e35565b80601f01602080910402602001604051908101604052809291908181526020018280546110c690612e35565b80156111115780601f106110e857610100808354040283529160200191611111565b820191905f5260205f20905b8154815290600101906020018083116110f457829003601f168201915b5050505050905090565b61112d6111266116b3565b8383611c2c565b5050565b61114261113c6116b3565b836117b0565b611181576040517f08c379a00000000000000000000000000000000000000000000000000000000081526004016111789061338c565b60405180910390fd5b61118d84848484611d93565b50505050565b606061119e82611def565b9050919050565b5f60055f8473ffffffffffffffffffffffffffffffffffffffff1673ffffffffffffffffffffffffffffffffffffffff1681526020019081526020015f205f8373ffffffffffffffffffffffffffffffffffffffff1673ffffffffffffffffffffffffffffffffffffffff1681526020019081526020015f205f9054906101000a900460ff16905092915050565b61123b611315565b5f73ffffffffffffffffffffffffffffffffffffffff168173ffffffffffffffffffffffffffffffffffffffff16036112a9576040517f08c379a00000000000000000000000000000000000000000000000000000000081526004016112a090613553565b60405180910390fd5b6112b281611b69565b50565b5f634906490660e01b7bffffffffffffffffffffffffffffffffffffffffffffffffffffffff1916827bffffffffffffffffffffffffffffffffffffffffffffffffffffffff1916148061130e575061130d82611ef9565b5b9050919050565b61131d6116b3565b73ffffffffffffffffffffffffffffffffffffffff1661133b611063565b73ffffffffffffffffffffffffffffffffffffffff1614611391576040517f08c379a0000000000000000000000000000000000000000000000000000000008152600401611388906135bb565b60405180910390fd5b565b6001815f015f828254019250508190555050565b5f815f01549050919050565b5f73ffffffffffffffffffffffffffffffffffffffff168273ffffffffffffffffffffffffffffffffffffffff1603611421576040517f08c379a000000000000000000000000000000000000000000000000000000000815260040161141890613623565b60405180910390fd5b61142a81611770565b1561146a576040517f08c379a00000000000000000000000000000000000000000000000000000000081526004016114619061368b565b60405180910390fd5b6114775f83836001611fda565b61148081611770565b156114c0576040517f08c379a00000000000000000000000000000000000000000000000000000000081526004016114b79061368b565b60405180910390fd5b600160035f8473ffffffffffffffffffffffffffffffffffffffff1673ffffffffffffffffffffffffffffffffffffffff1681526020019081526020015f205f82825401925050819055508160025f8381526020019081526020015f205f6101000a81548173ffffffffffffffffffffffffffffffffffffffff021916908373ffffffffffffffffffffffffffffffffffffffff160217905550808273ffffffffffffffffffffffffffffffffffffffff165f73ffffffffffffffffffffffffffffffffffffffff167fddf252ad1be2c89b69c2b068fc378daa952ba7f163c4a11628f55a4df523b3ef60405160405180910390a46115c25f83836001611fe0565b5050565b6115cf82611770565b61160e576040517f08c379a000000000000000000000000000000000000000000000000000000000815260040161160590613719565b60405180910390fd5b8060065f8481526020019081526020015f20908161162c9190613005565b507ff8e1a15aba9398e019f0b49df1a4fde98ee17ae345cb5f6b5e2c27f5033e8ce78260405161165c91906125a2565b60405180910390a15050565b61167181611770565b6116b0576040517f08c379a00000000000000000000000000000000000000000000000000000000081526004016116a7906133f4565b60405180910390fd5b50565b5f33905090565b8160045f8381526020019081526020015f205f6101000a81548173ffffffffffffffffffffffffffffffffffffffff021916908373ffffffffffffffffffffffffffffffffffffffff160217905550808273ffffffffffffffffffffffffffffffffffffffff1661172a83610c3e565b73ffffffffffffffffffffffffffffffffffffffff167f8c5be1e5ebec7d5bd14f71427d1e84f3dd0314c0f7b2291e5b200ac8c7c3b92560405160405180910390a45050565b5f5f73ffffffffffffffffffffffffffffffffffffffff1661179183611b30565b73ffffffffffffffffffffffffffffffffffffffff1614159050919050565b5f5f6117bb83610c3e565b90508073ffffffffffffffffffffffffffffffffffffffff168473ffffffffffffffffffffffffffffffffffffffff1614806117fd57506117fc81856111a5565b5b8061183b57508373ffffffffffffffffffffffffffffffffffffffff1661182384610826565b73ffffffffffffffffffffffffffffffffffffffff16145b91505092915050565b8273ffffffffffffffffffffffffffffffffffffffff1661186482610c3e565b73ffffffffffffffffffffffffffffffffffffffff16146118ba576040517f08c379a00000000000000000000000000000000000000000000000000000000081526004016118b1906137a7565b60405180910390fd5b5f73ffffffffffffffffffffffffffffffffffffffff168273ffffffffffffffffffffffffffffffffffffffff1603611928576040517f08c379a000000000000000000000000000000000000000000000000000000000815260040161191f90613835565b60405180910390fd5b6119358383836001611fda565b8273ffffffffffffffffffffffffffffffffffffffff1661195582610c3e565b73ffffffffffffffffffffffffffffffffffffffff16146119ab576040517f08c379a00000000000000000000000000000000000000000000000000000000081526004016119a2906137a7565b60405180910390fd5b60045f8281526020019081526020015f205f6101000a81549073ffffffffffffffffffffffffffffffffffffffff0219169055600160035f8573ffffffffffffffffffffffffffffffffffffffff1673ffffffffffffffffffffffffffffffffffffffff1681526020019081526020015f205f8282540392505081905550600160035f8473ffffffffffffffffffffffffffffffffffffffff1673ffffffffffffffffffffffffffffffffffffffff1681526020019081526020015f205f82825401925050819055508160025f8381526020019081526020015f205f6101000a81548173ffffffffffffffffffffffffffffffffffffffff021916908373ffffffffffffffffffffffffffffffffffffffff160217905550808273ffffffffffffffffffffffffffffffffffffffff168473ffffffffffffffffffffffffffffffffffffffff167fddf252ad1be2c89b69c2b068fc378daa952ba7f163c4a11628f55a4df523b3ef60405160405180910390a4611b2b8383836001611fe0565b505050565b5f60025f8381526020019081526020015f205f9054906101000a900473ffffffffffffffffffffffffffffffffffffffff169050919050565b5f60075f9054906101000a900473ffffffffffffffffffffffffffffffffffffffff1690508160075f6101000a81548173ffffffffffffffffffffffffffffffffffffffff021916908373ffffffffffffffffffffffffffffffffffffffff1602179055508173ffffffffffffffffffffffffffffffffffffffff168173ffffffffffffffffffffffffffffffffffffffff167f8be0079c531659141344cd1fd0a4f28419497f9722a3daafe3b4186f6b6457e060405160405180910390a35050565b8173ffffffffffffffffffffffffffffffffffffffff168373ffffffffffffffffffffffffffffffffffffffff1603611c9a576040517f08c379a0000000000000000000000000000000000000000000000000000000008152600401611c919061389d565b60405180910390fd5b8060055f8573ffffffffffffffffffffffffffffffffffffffff1673ffffffffffffffffffffffffffffffffffffffff1681526020019081526020015f205f8473ffffffffffffffffffffffffffffffffffffffff1673ffffffffffffffffffffffffffffffffffffffff1681526020019081526020015f205f6101000a81548160ff0219169083151502179055508173ffffffffffffffffffffffffffffffffffffffff168373ffffffffffffffffffffffffffffffffffffffff167f17307eab39ab6107e8899845ad3d59bd9653f200f220920489ca2b5937696c3183604051611d869190612655565b60405180910390a3505050565b611d9e848484611844565b611daa84848484611fe6565b611de9576040517f08c379a0000000000000000000000000000000000000000000000000000000008152600401611de09061392b565b60405180910390fd5b50505050565b6060611dfa82611668565b5f60065f8481526020019081526020015f208054611e1790612e35565b80601f0160208091040260200160405190810160405280929190818152602001828054611e4390612e35565b8015611e8e5780601f10611e6557610100808354040283529160200191611e8e565b820191905f5260205f20905b815481529060010190602001808311611e7157829003601f168201915b505050505090505f611e9e612168565b90505f815103611eb2578192505050611ef4565b5f82511115611ee6578082604051602001611ece929190613983565b60405160208183030381529060405292505050611ef4565b611eef8461217e565b925050505b919050565b5f7f80ac58cd000000000000000000000000000000000000000000000000000000007bffffffffffffffffffffffffffffffffffffffffffffffffffffffff1916827bffffffffffffffffffffffffffffffffffffffffffffffffffffffff19161480611fc357507f5b5e139f000000000000000000000000000000000000000000000000000000007bffffffffffffffffffffffffffffffffffffffffffffffffffffffff1916827bffffffffffffffffffffffffffffffffffffffffffffffffffffffff1916145b80611fd35750611fd2826121e3565b5b9050919050565b50505050565b50505050565b5f6120068473ffffffffffffffffffffffffffffffffffffffff1661224c565b1561215b578373ffffffffffffffffffffffffffffffffffffffff1663150b7a0261202f6116b3565b8786866040518563ffffffff1660e01b815260040161205194939291906139f8565b6020604051808303815f875af192505050801561208c57506040513d601f19601f820116820180604052508101906120899190613a56565b60015b61210b573d805f81146120ba576040519150601f19603f3d011682016040523d82523d5f602084013e6120bf565b606091505b505f815103612103576040517f08c379a00000000000000000000000000000000000000000000000000000000081526004016120fa9061392b565b60405180910390fd5b805181602001fd5b63150b7a0260e01b7bffffffffffffffffffffffffffffffffffffffffffffffffffffffff1916817bffffffffffffffffffffffffffffffffffffffffffffffffffffffff191614915050612160565b600190505b949350505050565b606060405180602001604052805f815250905090565b606061218982611668565b5f612192612168565b90505f8151116121b05760405180602001604052805f8152506121db565b806121ba8461226e565b6040516020016121cb929190613983565b6040516020818303038152906040525b915050919050565b5f7f01ffc9a7000000000000000000000000000000000000000000000000000000007bffffffffffffffffffffffffffffffffffffffffffffffffffffffff1916827bffffffffffffffffffffffffffffffffffffffffffffffffffffffff1916149050919050565b5f5f8273ffffffffffffffffffffffffffffffffffffffff163b119050919050565b60605f600161227c84612338565b0190505f8167ffffffffffffffff81111561229a57612299612808565b5b6040519080825280601f01601f1916602001820160405280156122cc5781602001600182028036833780820191505090505b5090505f82602001820190505b60011561232d578080600190039150507f3031323334353637383961626364656600000000000000000000000000000000600a86061a8153600a858161232257612321613a81565b5b0494505f85036122d9575b819350505050919050565b5f5f5f90507a184f03e93ff9f4daa797ed6e38ed64bf6a1f0100000000000000008310612394577a184f03e93ff9f4daa797ed6e38ed64bf6a1f010000000000000000838161238a57612389613a81565b5b0492506040810190505b6d04ee2d6d415b85acef810000000083106123d1576d04ee2d6d415b85acef810000000083816123c7576123c6613a81565b5b0492506020810190505b662386f26fc10000831061240057662386f26fc1000083816123f6576123f5613a81565b5b0492506010810190505b6305f5e1008310612429576305f5e100838161241f5761241e613a81565b5b0492506008810190505b612710831061244e57612710838161244457612443613a81565b5b0492506004810190505b60648310612471576064838161246757612466613a81565b5b0492506002810190505b600a8310612480576001810190505b80915050919050565b6040518060a0016040528060608152602001606081526020015f81526020015f81526020015f151581525090565b5f604051905090565b5f5ffd5b5f5ffd5b5f73ffffffffffffffffffffffffffffffffffffffff82169050919050565b5f6124f1826124c8565b9050919050565b612501816124e7565b811461250b575f5ffd5b50565b5f8135905061251c816124f8565b92915050565b5f819050919050565b61253481612522565b811461253e575f5ffd5b50565b5f8135905061254f8161252b565b92915050565b5f5f6040838503121561256b5761256a6124c0565b5b5f6125788582860161250e565b925050602061258985828601612541565b9150509250929050565b61259c81612522565b82525050565b5f6020820190506125b55f830184612593565b92915050565b5f7fffffffff0000000000000000000000000000000000000000000000000000000082169050919050565b6125ef816125bb565b81146125f9575f5ffd5b50565b5f8135905061260a816125e6565b92915050565b5f60208284031215612625576126246124c0565b5b5f612632848285016125fc565b91505092915050565b5f8115159050919050565b61264f8161263b565b82525050565b5f6020820190506126685f830184612646565b92915050565b5f60208284031215612683576126826124c0565b5b5f6126908482850161250e565b91505092915050565b5f81519050919050565b5f82825260208201905092915050565b5f819050602082019050919050565b6126cb81612522565b82525050565b5f6126dc83836126c2565b60208301905092915050565b5f602082019050919050565b5f6126fe82612699565b61270881856126a3565b9350612713836126b3565b805f5b8381101561274357815161272a88826126d1565b9750612735836126e8565b925050600181019050612716565b5085935050505092915050565b5f6020820190508181035f83015261276881846126f4565b905092915050565b5f81519050919050565b5f82825260208201905092915050565b8281835e5f83830152505050565b5f601f19601f8301169050919050565b5f6127b282612770565b6127bc818561277a565b93506127cc81856020860161278a565b6127d581612798565b840191505092915050565b5f6020820190508181035f8301526127f881846127a8565b905092915050565b5f5ffd5b5f5ffd5b7f4e487b71000000000000000000000000000000000000000000000000000000005f52604160045260245ffd5b61283e82612798565b810181811067ffffffffffffffff8211171561285d5761285c612808565b5b80604052505050565b5f61286f6124b7565b905061287b8282612835565b919050565b5f67ffffffffffffffff82111561289a57612899612808565b5b6128a382612798565b9050602081019050919050565b828183375f83830152505050565b5f6128d06128cb84612880565b612866565b9050828152602081018484840111156128ec576128eb612804565b5b6128f78482856128b0565b509392505050565b5f82601f83011261291357612912612800565b5b81356129238482602086016128be565b91505092915050565b5f5f60408385031215612942576129416124c0565b5b5f61294f8582860161250e565b925050602083013567ffffffffffffffff8111156129705761296f6124c4565b5b61297c858286016128ff565b9150509250929050565b5f6020828403121561299b5761299a6124c0565b5b5f6129a884828501612541565b91505092915050565b6129ba816124e7565b82525050565b5f6020820190506129d35f8301846129b1565b92915050565b5f5f5f606084860312156129f0576129ef6124c0565b5b5f6129fd8682870161250e565b9350506020612a0e8682870161250e565b9250506040612a1f86828701612541565b9150509250925092565b5f82825260208201905092915050565b5f612a4382612770565b612a4d8185612a29565b9350612a5d81856020860161278a565b612a6681612798565b840191505092915050565b612a7a8161263b565b82525050565b5f60a083015f8301518482035f860152612a9a8282612a39565b91505060208301518482036020860152612ab48282612a39565b9150506040830151612ac960408601826126c2565b506060830151612adc60608601826126c2565b506080830151612aef6080860182612a71565b508091505092915050565b5f6020820190508181035f830152612b128184612a80565b905092915050565b5f5f5f5f5f60a08688031215612b3357612b326124c0565b5b5f612b408882890161250e565b955050602086013567ffffffffffffffff811115612b6157612b606124c4565b5b612b6d888289016128ff565b945050604086013567ffffffffffffffff811115612b8e57612b8d6124c4565b5b612b9a888289016128ff565b935050606086013567ffffffffffffffff811115612bbb57612bba6124c4565b5b612bc7888289016128ff565b9250506080612bd888828901612541565b9150509295509295909350565b5f60a0820190508181035f830152612bfd81886127a8565b90508181036020830152612c1181876127a8565b9050612c206040830186612593565b612c2d6060830185612593565b612c3a6080830184612646565b9695505050505050565b612c4d8161263b565b8114612c57575f5ffd5b50565b5f81359050612c6881612c44565b92915050565b5f5f60408385031215612c8457612c836124c0565b5b5f612c918582860161250e565b9250506020612ca285828601612c5a565b9150509250929050565b5f67ffffffffffffffff821115612cc657612cc5612808565b5b612ccf82612798565b9050602081019050919050565b5f612cee612ce984612cac565b612866565b905082815260208101848484011115612d0a57612d09612804565b5b612d158482856128b0565b509392505050565b5f82601f830112612d3157612d30612800565b5b8135612d41848260208601612cdc565b91505092915050565b5f5f5f5f60808587031215612d6257612d616124c0565b5b5f612d6f8782880161250e565b9450506020612d808782880161250e565b9350506040612d9187828801612541565b925050606085013567ffffffffffffffff811115612db257612db16124c4565b5b612dbe87828801612d1d565b91505092959194509250565b5f5f60408385031215612de057612ddf6124c0565b5b5f612ded8582860161250e565b9250506020612dfe8582860161250e565b9150509250929050565b7f4e487b71000000000000000000000000000000000000000000000000000000005f52602260045260245ffd5b5f6002820490506001821680612e4c57607f821691505b602082108103612e5f57612e5e612e08565b5b50919050565b5f819050815f5260205f209050919050565b5f6020601f8301049050919050565b5f82821b905092915050565b5f60088302612ec17fffffffffffffffffffffffffffffffffffffffffffffffffffffffffffffffff82612e86565b612ecb8683612e86565b95508019841693508086168417925050509392505050565b5f819050919050565b5f612f06612f01612efc84612522565b612ee3565b612522565b9050919050565b5f819050919050565b612f1f83612eec565b612f33612f2b82612f0d565b848454612e92565b825550505050565b5f5f905090565b612f4a612f3b565b612f55818484612f16565b505050565b5b81811015612f7857612f6d5f82612f42565b600181019050612f5b565b5050565b601f821115612fbd57612f8e81612e65565b612f9784612e77565b81016020851015612fa6578190505b612fba612fb285612e77565b830182612f5a565b50505b505050565b5f82821c905092915050565b5f612fdd5f1984600802612fc2565b1980831691505092915050565b5f612ff58383612fce565b9150826002028217905092915050565b61300e82612770565b67ffffffffffffffff81111561302757613026612808565b5b6130318254612e35565b61303c828285612f7c565b5f60209050601f83116001811461306d575f841561305b578287015190505b6130658582612fea565b8655506130cc565b601f19841661307b86612e65565b5f5b828110156130a25784890151825560018201915060208501945060208101905061307d565b868310156130bf57848901516130bb601f891682612fce565b8355505b6001600288020188555050505b505050505050565b7f47656e6572616c000000000000000000000000000000000000000000000000005f82015250565b5f61310860078361277a565b9150613113826130d4565b602082019050919050565b5f819050919050565b5f61314161313c6131378461311e565b612ee3565b612522565b9050919050565b61315181613127565b82525050565b5f6060820190508181035f83015261316e816130fc565b905061317d6020830185613148565b818103604083015261318f81846127a8565b90509392505050565b7f4552433732313a20617070726f76616c20746f2063757272656e74206f776e655f8201527f7200000000000000000000000000000000000000000000000000000000000000602082015250565b5f6131f260218361277a565b91506131fd82613198565b604082019050919050565b5f6020820190508181035f83015261321f816131e6565b9050919050565b7f4552433732313a20617070726f76652063616c6c6572206973206e6f7420746f5f8201527f6b656e206f776e6572206f7220617070726f76656420666f7220616c6c000000602082015250565b5f613280603d8361277a565b915061328b82613226565b604082019050919050565b5f6020820190508181035f8301526132ad81613274565b9050919050565b7f436572746966696361746520646f6573206e6f742065786973740000000000005f82015250565b5f6132e8601a8361277a565b91506132f3826132b4565b602082019050919050565b5f6020820190508181035f830152613315816132dc565b9050919050565b7f4552433732313a2063616c6c6572206973206e6f7420746f6b656e206f776e655f8201527f72206f7220617070726f76656400000000000000000000000000000000000000602082015250565b5f613376602d8361277a565b91506133818261331c565b604082019050919050565b5f6020820190508181035f8301526133a38161336a565b9050919050565b7f4552433732313a20696e76616c696420746f6b656e20494400000000000000005f82015250565b5f6133de60188361277a565b91506133e9826133aa565b602082019050919050565b5f6020820190508181035f83015261340b816133d2565b9050919050565b5f6060820190508181035f83015261342a81866127a8565b90506134396020830185612593565b818103604083015261344b81846127a8565b9050949350505050565b7f4552433732313a2061646472657373207a65726f206973206e6f7420612076615f8201527f6c6964206f776e65720000000000000000000000000000000000000000000000602082015250565b5f6134af60298361277a565b91506134ba82613455565b604082019050919050565b5f6020820190508181035f8301526134dc816134a3565b9050919050565b7f4f776e61626c653a206e6577206f776e657220697320746865207a65726f20615f8201527f6464726573730000000000000000000000000000000000000000000000000000602082015250565b5f61353d60268361277a565b9150613548826134e3565b604082019050919050565b5f6020820190508181035f83015261356a81613531565b9050919050565b7f4f776e61626c653a2063616c6c6572206973206e6f7420746865206f776e65725f82015250565b5f6135a560208361277a565b91506135b082613571565b602082019050919050565b5f6020820190508181035f8301526135d281613599565b9050919050565b7f4552433732313a206d696e7420746f20746865207a65726f20616464726573735f82015250565b5f61360d60208361277a565b9150613618826135d9565b602082019050919050565b5f6020820190508181035f83015261363a81613601565b9050919050565b7f4552433732313a20746f6b656e20616c7265616479206d696e746564000000005f82015250565b5f613675601c8361277a565b915061368082613641565b602082019050919050565b5f6020820190508181035f8301526136a281613669565b9050919050565b7f45524337323155524953746f726167653a2055524920736574206f66206e6f6e5f8201527f6578697374656e7420746f6b656e000000000000000000000000000000000000602082015250565b5f613703602e8361277a565b915061370e826136a9565b604082019050919050565b5f6020820190508181035f830152613730816136f7565b9050919050565b7f4552433732313a207472616e736665722066726f6d20696e636f7272656374205f8201527f6f776e6572000000000000000000000000000000000000000000000000000000602082015250565b5f61379160258361277a565b915061379c82613737565b604082019050919050565b5f6020820190508181035f8301526137be81613785565b9050919050565b7f4552433732313a207472616e7366657220746f20746865207a65726f206164645f8201527f7265737300000000000000000000000000000000000000000000000000000000602082015250565b5f61381f60248361277a565b915061382a826137c5565b604082019050919050565b5f6020820190508181035f83015261384c81613813565b9050919050565b7f4552433732313a20617070726f766520746f2063616c6c6572000000000000005f82015250565b5f61388760198361277a565b915061389282613853565b602082019050919050565b5f6020820190508181035f8301526138b48161387b565b9050919050565b7f4552433732313a207472616e7366657220746f206e6f6e2045524337323152655f8201527f63656976657220696d706c656d656e7465720000000000000000000000000000602082015250565b5f61391560328361277a565b9150613920826138bb565b604082019050919050565b5f6020820190508181035f83015261394281613909565b9050919050565b5f81905092915050565b5f61395d82612770565b6139678185613949565b935061397781856020860161278a565b80840191505092915050565b5f61398e8285613953565b915061399a8284613953565b91508190509392505050565b5f81519050919050565b5f82825260208201905092915050565b5f6139ca826139a6565b6139d481856139b0565b93506139e481856020860161278a565b6139ed81612798565b840191505092915050565b5f608082019050613a0b5f8301876129b1565b613a1860208301866129b1565b613a256040830185612593565b8181036060830152613a3781846139c0565b905095945050505050565b5f81519050613a50816125e6565b92915050565b5f60208284031215613a6b57613a6a6124c0565b5b5f613a7884828501613a42565b91505092915050565b7f4e487b71000000000000000000000000000000000000000000000000000000005f52601260045260245ffdfea2646970667358221220deb9dd6e2290f1d4e8a38d927a28e71aee94140862c1dc92a1f9f6890e55556964736f6c634300081e0033","linkReferences":{}},"methodIdentifiers":{"approve(address,uint256)":"095ea7b3","balanceOf(address)":"70a08231","certificates(uint256)":"663b3e22","getApproved(uint256)":"081812fc","getCertificate(uint256)":"51640fee","getUserCertificates(address)":"0385bd18","isApprovedForAll(address,address)":"e985e9c5","mintCertificate(address,string)":"0712249f","mintCertificateWithDetails(address,string,string,string,uint256)":"63a0d4d4","name()":"06fdde03","owner()":"8da5cb5b","ownerOf(uint256)":"6352211e","renounceOwnership()":"715018a6","safeTransferFrom(address,address,uint256)":"42842e0e","safeTransferFrom(address,address,uint256,bytes)":"b88d4fde","setApprovalForAll(address,bool)":"a22cb465","supportsInterface(bytes4)":"01ffc9a7","symbol()":"95d89b41","tokenURI(uint256)":"c87b56dd","totalSupply()":"18160ddd","transferFrom(address,address,uint256)":"23b872dd","transferOwnership(address)":"f2fde38b","userCertificates(address,uint256)":"0175f889","verifyCertificate(uint256)":"1692a942"},"id":0}